{
  "contractName": "AlexToken",
  "abi": [
    {
      "constant": true,
      "inputs": [],
      "name": "totalSupply",
      "outputs": [
        {
          "name": "",
          "type": "uint256"
        }
      ],
      "payable": false,
      "stateMutability": "view",
      "type": "function"
    },
    {
      "inputs": [],
      "payable": false,
      "stateMutability": "nonpayable",
      "type": "constructor"
    }
  ],
  "bytecode": "0x608060405234801561001057600080fd5b50620186a0600081905550609e806100296000396000f300608060405260043610603f576000357c0100000000000000000000000000000000000000000000000000000000900463ffffffff16806318160ddd146044575b600080fd5b348015604f57600080fd5b506056606c565b6040518082815260200191505060405180910390f35b600054815600a165627a7a723058203f9c3804746af53767f68f7a5fae65ba25e883b255a44e9f2ff7bd3febca1dd00029",
  "source": "pragma solidity ^0.4.2;\n\ncontract AlexToken {\n    \n    uint256 public totalSupply;\n\n    //Constructor\n    function AlexToken () public {\n        totalSupply = 100000;\n    }\n}",
  "sourcePath": "/Users/alex/Desktop/Blockchain/alex_token/contracts/AlexToken.sol",
  "compiler": {
    "name": "solc",
    "version": "0.4.24+commit.e67f0147.Emscripten.clang"
  },
  "schemaVersion": "2.0.1",
  "updatedAt": "2018-11-27T23:43:54.392Z"
}